:1000000012C02CC02BC02AC029C028C05FC926C07E
:1000100025C024C023C022C021C020C01FC01EC0D4
:100020001DC01CC01BC011241FBECFE5D4E0DEBF25
:10003000CDBF10E0A0E6B0E0ECEBF5E102C005902A
:100040000D92A236B107D9F720E0A2E6B0E001C0D8
:100050001D92A038B207E1F704DAAECAD1CF8EB54F
:100060008C608EBD89B7886189BF80E792E09BBDB7
:100070008ABD99BD88BD84B3826284BB85B38D7D02
:1000800085BBA09AA898BC9A86B1876886B987B1C3
:10009000806C87B9C29A78940895813011F4809366
:1000A0006800089597B1987F982B97B994B321E091
:1000B00030E0082E01C0220F0A94EAF72095292388
:1000C00024BB369A3699FECF84B195B10895FF923C
:1000D0000F931F93CF93DF93EB010DE028E1F22EF6
:1000E00011E08032934008F4B5C080916000813007
:1000F00009F073C090916100913039F490936600DB
:1001000000937600F0926D000CC0909161009230E7
:1001100051F58093660000937600F0926D00809315
:100120007500109261002FEF86E791E0215080402A
:100130009040E1F700C00000809161008F5F8093E4
:1001400061002FEF86E791E0215080409040E1F779
:1001500000C00000809161008F5F80936100109269
:1001600060001093620081E09DDF8032934008F4CC
:1001700071C010936600F092760000936D001092AB
:1001800061008FEF96E721E0815090402040E1F739
:1001900000C00000809161008F5F809361008FEF4D
:1001A00096E721E0815090402040E1F700C0000038
:1001B000809161008F5F809361008FEF96E721E06F
:1001C000815090402040E1F700C000001093600093
:1001D0001092620081E066DF84CF809162008130FE
:1001E000C9F58093660098E1909376009DE0909326
:1001F0006D0080937500109261008FEF96E721E00B
:10020000815090402040E1F700C0000080916100E3
:100210008F5F809361008FEF96E721E081509040DF
:100220002040E1F700C00000809161008F5F809363
:10023000610081E0809360001092620082E0809310
:1002400061008FEF96E721E0815090402040E1F778
:1002500000C0000002E011E0C13991E0D90708F0C8
:10026000C7C080916000813009F07EC0809161003C
:100270008130B1F510926300109270001092690005
:100280001092720010926F0010927900109261002B
:1002900010927A00109268008093710000936400BD
:1002A0008FE795EB21E0815090402040E1F700C0BE
:1002B0000000809161008F5F809361008FE795EB74
:1002C00021E0815090402040E1F700C00000809183
:1002D00061008F5F80936100109260001093620054
:1002E00080E0E0DEEC01C13981E0D80708F080C091
:1002F0009FE725EB81E0915020408040E1F700C06E
:1003000000000093710010936400109261009FE759
:1003100025EB81E0915020408040E1F700C00000D3
:10032000809161008F5F809361009FE725EB81E002
:10033000915020408040E1F700C0000080916100B2
:100340008F5F809361009FE725EB81E09150204013
:100350008040E1F700C0000010936000109262003E
:1003600080E0A0DEEC0178CF80916200813009F05E
:100370003FC0109263001092700010926F001092B4
:100380007900109269001092720010927A0092E047
:100390009093710080936400109261002FE785EBC9
:1003A00091E0215080409040E1F700C00000809132
:1003B00061008F5F809361002FE785EB91E0215012
:1003C00080409040E1F700C00000809161008F5FA5
:1003D0008093610081E080936000109262002FE7BB
:1003E00085EB91E0215080409040E1F700C0000093
:1003F00002E011E0C032D34008F4C5C08091600033
:10040000813009F07CC0809161008130B1F510929B
:1004100064001092710010926900109272001092A4
:100420006F00109279001092610010927A00109281
:10043000680080936300009370002FE785EB91E0E4
:10044000215080409040E1F700C0000080916100A1
:100450008F5F809361002FE785EB91E02150804012
:100460009040E1F700C00000809161008F5F8093B1
:100470006100109260001093620080E013DE803211
:10048000934008F480C08FE795EB21E081509040C5
:100490002040E1F700C0000000936300109370005B
:1004A000109261008FE795EB21E081509040204051
:1004B000E1F700C00000809161008F5F80936100D0
:1004C0008FE795EB21E0815090402040E1F700C09C
:1004D0000000809161008F5F809361008FE795EB52
:1004E00021E0815090402040E1F700C000001093CF
:1004F00060001092620080E0D5DDEC017BCF80913E
:100500006200813009F03FC01092640010927100C7
:1005100010926F0010927900109269001092720090
:1005200010927A001092610092E0909363008093A1
:1005300070009FE725EB81E0915020408040E1F77B
:1005400000C00000809161008F5F809361009FE791
:1005500025EB81E0915020408040E1F700C0000091
:10056000809161008F5F8093610081E080936000E3
:10057000109262009FE725EB81E09150204080407F
:10058000E1F700C0000080916800813031F4809371
:100590006A001092750010926D00DF91CF911F914B
:1005A0000F91FF900895CF93DF9300D0CDB7DEB7C2
:1005B0009A83898389819A81892B41F082E08A9587
:1005C000F1F700C089819A810197F2CF0F900F90C7
:1005D000DF91CF910895E7DF91980895E4DF909837
:1005E0000895E1DFC5980895DEDFAC980895DBDF5C
:1005F000AB980895D8DFAA980895D5DF9598089507
:10060000D2DF96980895CFDF97980895CCDF92981F
:100610000895C9DF94980895C6DF93980895EF92DE
:10062000FF920F931F93CF93DF93CDB7DEB727973A
:100630000FB6F894DEBF0FBECDBF89837B836A837C
:100640005D834C833F832E838981813009F0ADC067
:100650006A817B816A587D4F4C815D8146525D4F36
:100660002E813F8122523C4F641775071CF44217BC
:1006700053070CF080E0182F11706217730724F4F1
:1006800081E0241735070CF080E0B82FB1704617D1
:10069000570724F481E0621773070CF080E0A82F5D
:1006A000A1704217530724F481E0261737070CF096
:1006B00080E0F82FF1702617370724F481E06417E3
:1006C00075070CF080E0E82FE1702417350724F45B
:1006D00091E0461757070CF090E0BD9A81B3836014
:1006E00081BBC59A82B3836082BB80E010FB80F936
:1006F000B0FB81F9A0FB82F9F0FB83F9E0FB84F900
:1007000090FB85F980FF0BC07A01E61AF70A890190
:10071000041B150BCB0162DFC7015DDF19C081FF30
:100720000BC07901E61AF70A8A01021B130BCB01F1
:1007300055DFC70156DF28C082FF0DC07B01E41AD8
:10074000F50A8901061B170BCA0145DFC70146DF01
:10075000C80147DF2AC083FF0BC07901E41AF50AFC
:100760008B01021B130BCA0136DFC7013ADF1BC026
:1007700084FF0DC07B01E21AF30A8A01061B170BE6
:10078000C9012FDFC7012ADFC80125DF0EC085FFA1
:100790000CC07A01E21AF30A8B01041B150BC90184
:1007A00020DFC70118DFC80119DF8981823009F015
:1007B000ACC06A817B816A587D4F2C813D81265770
:1007C0003D4F4E815F814C5C5C4F6417750724F48C
:1007D00081E0421753070CF080E0182F1170621768
:1007E000730724F481E0241735070CF080E0B82F5C
:1007F000B1704617570724F481E0621773070CF0B5
:1008000080E0A82FA1704217530724F481E0261737
:1008100037070CF080E0F82FF1702617370724F423
:1008200081E0641775070CF080E0E82FE170241771
:10083000350724F491E0461757070CF090E084B395
:100840008C6184BB85B38C6185BB80E010FB80F933
:10085000B0FB81F9A0FB82F9F0FB83F9E0FB84F99E
:1008600090FB85F980FF0BC07A01E61AF70A89012F
:10087000041B150BCB01BBDEC701B6DE19C081FF1F
:100880000BC07901E61AF70A8A01021B130BCB0190
:10089000AEDEC701AFDE28C082FF0DC07B01E41AC7
:1008A000F50A8901061B170BCA019EDEC7019FDEF0
:1008B000C801A0DE2AC083FF0BC07901E41AF50A43
:1008C0008B01021B130BCA018FDEC70193DE1BC015
:1008D00084FF0DC07B01E21AF30A8A01061B170B85
:1008E000C90188DEC70183DEC8017EDE0EC085FF38
:1008F0000CC07A01E21AF30A8B01041B150BC90123
:1009000079DEC70171DEC80172DE8981833009F0AA
:10091000CEC02A813B81225B3D4F4C815D8142519B
:100920005D4F6E817F81665D7C4F6417750724F48F
:1009300081E0421753070CF080E0182F1170621706
:10094000730724F481E0241735070CF080E0B82FFA
:10095000B1704617570724F481E0621773070CF053
:1009600080E0A82FA1704217530724F481E02617D6
:1009700037070CF080E0F82FF1702617370724F4C2
:1009800081E0641775070CF080E0E82FE170241710
:10099000350724F491E0461757070CF090E081B337
:1009A000806E81BB82B3806E82BB80E010FB80F9D9
:1009B000B0FB81F9A0FB82F9F0FB83F9E0FB84F93D
:1009C00090FB85F980FF0BC07A01E61AF70A8901CE
:1009D000041B150BCB0114DEC7010FDE19C081FF0C
:1009E0000BC07901E61AF70A8A01021B130BCB012F
:1009F00007DEC70108DE33C082FF18C07B01E41A9E
:100A0000F50A8901061B170BCA01F7DDC701F8DDDE
:100A1000C80127960FB6F894DEBF0FBECDBFDF9199
:100A2000CF911F910F91FF90EF90EDCD83FF0BC001
:100A30007901E41AF50A8B01021B130BCA01DDDDF3
:100A4000C701E1DD26C084FF18C07B01E21AF30A6A
:100A50008A01061B170BC901D6DDC701D1DDC8010C
:100A600027960FB6F894DEBF0FBECDBFDF91CF91B2
:100A70001F910F91FF90EF90C0CD85FFEAC07A01E2
:100A8000E21AF30A8B01041B150BC901BCDDC70177
:100A9000B4DDC80127960FB6F894DEBF0FBECDBFF8
:100AA000DF91CF911F910F91FF90EF90A9CD898198
:100AB000843009F0CEC02A813B812A583D4F4C81B9
:100AC0005D8146585C4F6E817F8168517C4F641711
:100AD000750724F481E0421753070CF080E0182FCB
:100AE00011706217730724F481E0241735070CF0A6
:100AF00080E0B82FB1704617570724F481E06217E1
:100B000073070CF080E0A82FA1704217530724F45C
:100B100081E0261737070CF080E0F82FF1702617D8
:100B2000370724F481E0641775070CF080E0E82FA4
:100B3000E1702417350724F491E0461757070CF0AD
:100B400090E081B38C6181BB82B38C6182BB80E019
:100B500010FB80F9B0FB81F9A0FB82F9F0FB83F96F
:100B6000E0FB84F990FB85F980FF0BC07A01E61A5F
:100B7000F70A8901041B150BCB014BDDC70146DDCC
:100B800019C081FF0BC07901E61AF70A8A01021B1E
:100B9000130BCB013EDDC7013FDD33C082FF18C020
:100BA0007B01E41AF50A8901061B170BCA012EDD29
:100BB000C7012FDDC80127960FB6F894DEBF0FBE20
:100BC000CDBFDF91CF911F910F91FF90EF9024CD7A
:100BD00083FF0BC07901E41AF50A8B01021B130B8A
:100BE000CA0114DDC70118DD26C084FF18C07B01CF
:100BF000E21AF30A8A01061B170BC9010DDDC701B2
:100C000008DDC80127960FB6F894DEBF0FBECDBF32
:100C1000DF91CF911F910F91FF90EF90F7CC85FF5F
:100C200018C07A01E21AF30A8B01041B150BC901E3
:100C3000F3DCC701EBDCC80127960FB6F894DEBFE2
:100C40000FBECDBFDF91CF911F910F91FF90EF901D
:100C5000E0CC27960FB6F894DEBF0FBECDBFDF9174
:100C6000CF911F910F91FF90EF90089580916600B2
:100C7000813009F082C01092680010926A001092D0
:100C8000730010927B0010926500809176008D3089
:100C900019F08831D9F108958091610081110FC058
:100CA00020E030E040E050E06EE170E081E0B7DC51
:100CB00022EE3FEF44EC5FEF6EE170E011C08091F7
:100CC0006100813079F420EB3FEF44EC5FEF6EE19F
:100CD00070E0A5DC22EE3FEF44E150E062E370E01B
:100CE00083E04AC080916100823009F046C02EEC5A
:100CF0003FEF44EC5FEF68E770E081E090DC2AE6CC
:100D00003FEF44E150E064E170E0EACF80916100A0
:100D100081110DC02CE330E044E150E06EE170E061
:100D200082E07DDC20E030E040E050E010C08091C7
:100D30006100813079F42CEE3FEF48E250E06EE143
:100D400070E082E06CDC20EB3FEF40E550E062E3D6
:100D500070E011C080916100823079F42CEE3FEF99
:100D600047E350E064E670E05ADC2EEC3FEF40E5EC
:100D700050E062EE7FEF84E052CC0895CF93DF9392
:100D80001F92CDB7DEB789838981813019F0823017
:100D9000D9F174C08091610081110FC020E030E072
:100DA00040E050E06EE170E081E039DC22EE3FEFA0
:100DB00040E050E06EE170E011C080916100813050
:100DC00079F420EB3FEF4EEC5FEF6EE170E027DC53
:100DD00022EE3FEF4EEC5FEF62E370E083E04AC04B
:100DE00080916100823009F049C02EEC3FEF4EEC5B
:100DF0005FEF68E770E081E012DC2AE63FEF4EEC3F
:100E00005FEF64E170E0EACF8091610081110DC075
:100E100020E030E044E150E06EE170E082E0FFDB92
:100E200020E030E040E050E010C08091610081306F
:100E300079F42EEC3FEF48E250E06EE170E082E0A2
:100E4000EEDB20EB3FEF4CE95FEF62E370E011C0B7
:100E500080916100823091F42EEC3FEF47E350E047
:100E600064E670E0DCDB2EEC3FEF4CE95FEF62EE16
:100E70007FEF84E00F90DF91CF91D1CB0F90DF9186
:100E8000CF910895CF93DF931F92CDB7DEB78983BB
:100E90008981813021F0823009F441C078C080918D
:100EA000610081110FC020E030E040E050E06EE1D1
:100EB00070E081E0B4DB22EE3FEF40E050E06EE115
:100EC00070E011C080916100813079F420EB3FEF38
:100ED00040E050E06EE170E0A2DB22EE3FEF40E048
:100EE00050E062E370E083E04EC0809161008230A8
:100EF00079F42EEC3FEF40E050E068E770E081E0ED
:100F00008EDB2AE63FEF40E050E064E170E0EBCF9B
:100F1000809161008330D9F51092610038C08091D2
:100F2000610081110BC020E030E044E150E06EE14F
:100F300070E082E074DB20E030E00EC08091610060
:100F4000813079F420E030E048E250E06EE170E07A
:100F500082E065DB20EB3FEF40E050E062E370E0D1
:100F600011C080916100823091F420E030E047E3CD
:100F700050E064E670E053DB2EEC3FEF40E050E0E1
:100F800062EE7FEF84E00F90DF91CF9148CB0F901E
:100F9000DF91CF910895CF93DF93D62FC42F809107
:100FA0006D008D30A1F4611112C0411110C02EEC02
:100FB0003FEF40E050E068E770E081E030DB2AE698
:100FC0003FEF48ED5FEF64E170E083E017C0809190
:100FD0006D008831A1F4D11112C0C11110C02CE3F1
:100FE00030E047E350E064E670E082E018DB2EEC8E
:100FF0003FEF40E050E062EE7FEF84E010DB809155
:101000006D008D30A1F4D13091F4C11110C02EECDF
:101010003FEF40E050E068E770E081E000DB26E56C
:101020003FEF44EC5FEF62E870E083E017C080912F
:101030006D008831A1F4D13091F4C11110C02EECB3
:101040003FEF40E050E062EE7FEF84E0E8DA2CE32F
:1010500030E046E950E064E670E082E0E0DA80915A
:101060006D00811126C0D11124C0C13011F52EECC4
:101070003FEF40E050E068E770E081E0D0DA2CE339
:1010800030E047E350E064E670E082E0C8DA2AE648
:101090003FEF48ED5FEF64E170E083E0C0DA2EECF3
:1010A0003FEF40E050E062EE7FEF84E0DF91CF91D0
:1010B000B6CADF91CF910895813021F0823009F4D2
:1010C0006CC0089580916C0081110BC02CE830E059
:1010D00040E050E066E07FEF81E0A1DA24E031E01B
:1010E00034C080916C00813079F42AE63FEF40E013
:1010F00050E066E07FEF93DA24E031E040E050E03A
:101100006CE870E083E0C1C080916C008230F1F245
:1011100080916C00833059F428E730E040E050E0E3
:1011200068E87FEF81E07BDA2EE630E00EC0809148
:101130006C00843079F428E730E040E050E060EB68
:101140007FEF81E06CDA20E530E040E050E06CE9D0
:101150007FEFD8CF80916C00853059F420E030E0EB
:1011600040E050E060E070E081E059DA20E030E0FB
:101170000FC080916C00863009F088C022EE3FEFEE
:1011800040E050E06AE570E081E049DA26EA3FEFAE
:1011900040E050E060E070E0B5CF809174008111D4
:1011A0000BC020E030E04EE75FEF6CEF7EEF82E0B7
:1011B00036DA22E830E03EC080917400813059F484
:1011C00020E030E04CE850E06CEF7EEF82E027DA80
:1011D00028E33FEF2FC080917400823051F420E06B
:1011E00030E042E95FEF6CEF7EEF19DA20EA30E0A1
:1011F00021C080917400833079F420E030E042E92E
:101200005FEF6CE97FEF82E00ADA22E830E040E04D
:1012100050E064E670E038C080917400843079F466
:1012200020E030E040E050E06CEF7EEF82E0F7D964
:1012300022EE3FEF40E050E064E071E025C0809195
:101240007400853079F420E030E04CEE5FEF60E030
:1012500070E082E0E4D922E330E040E050E060E07A
:1012600070E012C080917400863081F420E030E09C
:1012700042E350E061E470E082E0D1D922EE3FEF3A
:1012800040E050E06CEE7FEF84E0C9C908959B0117
:10129000AC01A4E6B0E025D1982F872F762F6627E2
:1012A00028EB36E841E050E000D1275031094109F0
:1012B0005109220F331F441F551F27333140410569
:1012C000510514F4C49A0895C49808951F920F927A
:1012D0000FB60F9211242F933F934F935F936F9309
:1012E0007F938F939F93AF93BF93EF93FF9340911F
:1012F0006A006091750080916D004DDEB7DCFF9152
:10130000EF91BF91AF919F918F917F916F915F917D
:101310004F913F912F910F900FBE0F901F901895F6
:1013200080FF02C0949A01C0949881FF02C0959AF0
:1013300001C0959882FF02C0969A01C0969883FFDB
:1013400002C0979A089597980895CF93C82FC19A8D
:1013500082958F70E5DFC198C19A8C2FE1DFC1982B
:1013600085E88A95F1F70000CF910895C098EDCFF8
:10137000C09AEBCFCF93DF93EC018991882311F0D2
:10138000F7DFFBCFDF91CF910895CF93DF93CDB7F8
:10139000DEB761970FB6F894DEBF0FBECDBFDC019C
:1013A000CB014AE0BE016F5F7F4FD3D0CE010196E3
:1013B000E1DF61960FB6F894DEBF0FBECDBFDF91BF
:1013C000CF91089590E4699F800D11248068CECF5D
:1013D00081E0CCDF8FE99FE00197F1F700C00000CA
:1013E000089582E0C3DF8FE99FE00197F1F700C025
:1013F00000000895CF938C9A8D9A8E9A8F9AB99AFD
:10140000B89A8FE295E70197F1F700C00000C09805
:10141000C198C3E0C19A83E083DFC1988FE097E26F
:101420000197F1F700C00000C150A1F7C19A82E016
:1014300077DFC1988FEC97E00197F1F700C00000CB
:1014400088E294DF88E092DF81E090DF8FE99FE01F
:101450000197F1F700C0000086E088DF8CE0CF91B3
:1014600085CFFDD5C1E086B382FB882780F98C2724
:1014700014D681E017D690937D0080937C0080E0A5
:1014800011D690937F0080937E008FE19EE40197B8
:10149000F1F700C0000060917E0070917F008091A4
:1014A0007C0090917D0013D6DECF052E97FB16F4BD
:1014B00000940FD057FD05D01ED007FC02D046F493
:1014C00008C050954095309521953F4F4F4F5F4F45
:1014D000089590958095709561957F4F8F4F9F4FA0
:1014E00008952BD0A59F900DB49F900DA49F800DC3
:1014F000911D11240895A1E21A2EAA1BBB1BFD0108
:101500000DC0AA1FBB1FEE1FFF1FA217B307E407E2
:10151000F50720F0A21BB30BE40BF50B661F771F3A
:10152000881F991F1A9469F760957095809590951A
:101530009B01AC01BD01CF010895A29FB001B39FF3
:10154000C001A39F01D0B29F700D811D1124911D78
:101550000895BB274A3031F4992322F4BDE29095D7
:1015600081959F4F01C0BB27FB015527AA27880FF4
:10157000991FAA1FA41710F0A41B83955051B9F707
:10158000A05DAA3308F0A95DA193009779F7B11186
:10159000B1931192CB0100C0DC01FC01672F719166
:1015A0007723E1F7329704C07C916D937083629149
:0C15B000AE17BF07C8F30895F894FFCFF2
:0215BC0001012B
:00000001FF
